{
  "_format": "hh-sol-artifact-1",
  "contractName": "Exchange",
  "sourceName": "contracts/Exchange.sol",
  "abi": [
    {
      "inputs": [
        {
          "internalType": "contract IERC20",
          "name": "_token",
          "type": "address"
        }
      ],
      "stateMutability": "nonpayable",
      "type": "constructor"
    },
    {
      "anonymous": false,
      "inputs": [
        {
          "indexed": false,
          "internalType": "address",
          "name": "provider",
          "type": "address"
        },
        {
          "indexed": false,
          "internalType": "uint256",
          "name": "tokenAmount",
          "type": "uint256"
        },
        {
          "indexed": false,
          "internalType": "uint256",
          "name": "ethAmount",
          "type": "uint256"
        }
      ],
      "name": "LiquidityAdded",
      "type": "event"
    },
    {
      "anonymous": false,
      "inputs": [
        {
          "indexed": false,
          "internalType": "address",
          "name": "provider",
          "type": "address"
        },
        {
          "indexed": false,
          "internalType": "uint256",
          "name": "tokenAmount",
          "type": "uint256"
        },
        {
          "indexed": false,
          "internalType": "uint256",
          "name": "ethAmount",
          "type": "uint256"
        }
      ],
      "name": "LiquidityRemoved",
      "type": "event"
    },
    {
      "anonymous": false,
      "inputs": [
        {
          "indexed": false,
          "internalType": "uint256",
          "name": "orderId",
          "type": "uint256"
        }
      ],
      "name": "OrderCancelled",
      "type": "event"
    },
    {
      "anonymous": false,
      "inputs": [
        {
          "indexed": false,
          "internalType": "uint256",
          "name": "orderId",
          "type": "uint256"
        },
        {
          "indexed": false,
          "internalType": "address",
          "name": "fulfiller",
          "type": "address"
        },
        {
          "indexed": false,
          "internalType": "uint256",
          "name": "amount",
          "type": "uint256"
        }
      ],
      "name": "OrderFulfilled",
      "type": "event"
    },
    {
      "anonymous": false,
      "inputs": [
        {
          "indexed": false,
          "internalType": "uint256",
          "name": "orderId",
          "type": "uint256"
        },
        {
          "indexed": false,
          "internalType": "address",
          "name": "trader",
          "type": "address"
        },
        {
          "indexed": false,
          "internalType": "bool",
          "name": "isBuyOrder",
          "type": "bool"
        },
        {
          "indexed": false,
          "internalType": "uint256",
          "name": "price",
          "type": "uint256"
        },
        {
          "indexed": false,
          "internalType": "uint256",
          "name": "amount",
          "type": "uint256"
        }
      ],
      "name": "OrderPlaced",
      "type": "event"
    },
    {
      "anonymous": false,
      "inputs": [
        {
          "indexed": false,
          "internalType": "address",
          "name": "trader",
          "type": "address"
        },
        {
          "indexed": false,
          "internalType": "uint256",
          "name": "inputAmount",
          "type": "uint256"
        },
        {
          "indexed": false,
          "internalType": "uint256",
          "name": "outputAmount",
          "type": "uint256"
        },
        {
          "indexed": false,
          "internalType": "bool",
          "name": "isTokenToEth",
          "type": "bool"
        }
      ],
      "name": "Swap",
      "type": "event"
    },
    {
      "inputs": [
        {
          "internalType": "uint256",
          "name": "tokenAmount",
          "type": "uint256"
        }
      ],
      "name": "addLiquidity",
      "outputs": [],
      "stateMutability": "payable",
      "type": "function"
    },
    {
      "inputs": [
        {
          "internalType": "uint256",
          "name": "orderId",
          "type": "uint256"
        }
      ],
      "name": "cancelOrder",
      "outputs": [],
      "stateMutability": "nonpayable",
      "type": "function"
    },
    {
      "inputs": [
        {
          "internalType": "uint256",
          "name": "minTokens",
          "type": "uint256"
        }
      ],
      "name": "ethToTokenSwap",
      "outputs": [],
      "stateMutability": "payable",
      "type": "function"
    },
    {
      "inputs": [
        {
          "internalType": "uint256",
          "name": "orderId",
          "type": "uint256"
        },
        {
          "internalType": "uint256",
          "name": "amount",
          "type": "uint256"
        }
      ],
      "name": "fulfillOrder",
      "outputs": [],
      "stateMutability": "nonpayable",
      "type": "function"
    },
    {
      "inputs": [
        {
          "internalType": "uint256",
          "name": "inputAmount",
          "type": "uint256"
        },
        {
          "internalType": "uint256",
          "name": "inputReserve",
          "type": "uint256"
        },
        {
          "internalType": "uint256",
          "name": "outputReserve",
          "type": "uint256"
        }
      ],
      "name": "getOutputAmount",
      "outputs": [
        {
          "internalType": "uint256",
          "name": "",
          "type": "uint256"
        }
      ],
      "stateMutability": "pure",
      "type": "function"
    },
    {
      "inputs": [
        {
          "internalType": "address",
          "name": "",
          "type": "address"
        }
      ],
      "name": "liquidity",
      "outputs": [
        {
          "internalType": "uint256",
          "name": "",
          "type": "uint256"
        }
      ],
      "stateMutability": "view",
      "type": "function"
    },
    {
      "inputs": [
        {
          "internalType": "uint256",
          "name": "",
          "type": "uint256"
        }
      ],
      "name": "orders",
      "outputs": [
        {
          "internalType": "address",
          "name": "trader",
          "type": "address"
        },
        {
          "internalType": "bool",
          "name": "isBuyOrder",
          "type": "bool"
        },
        {
          "internalType": "uint256",
          "name": "price",
          "type": "uint256"
        },
        {
          "internalType": "uint256",
          "name": "amount",
          "type": "uint256"
        },
        {
          "internalType": "bool",
          "name": "isActive",
          "type": "bool"
        }
      ],
      "stateMutability": "view",
      "type": "function"
    },
    {
      "inputs": [],
      "name": "owner",
      "outputs": [
        {
          "internalType": "address",
          "name": "",
          "type": "address"
        }
      ],
      "stateMutability": "view",
      "type": "function"
    },
    {
      "inputs": [
        {
          "internalType": "bool",
          "name": "isBuyOrder",
          "type": "bool"
        },
        {
          "internalType": "uint256",
          "name": "price",
          "type": "uint256"
        },
        {
          "internalType": "uint256",
          "name": "amount",
          "type": "uint256"
        }
      ],
      "name": "placeOrder",
      "outputs": [],
      "stateMutability": "payable",
      "type": "function"
    },
    {
      "inputs": [
        {
          "internalType": "uint256",
          "name": "amount",
          "type": "uint256"
        }
      ],
      "name": "removeLiquidity",
      "outputs": [],
      "stateMutability": "nonpayable",
      "type": "function"
    },
    {
      "inputs": [],
      "name": "token",
      "outputs": [
        {
          "internalType": "contract IERC20",
          "name": "",
          "type": "address"
        }
      ],
      "stateMutability": "view",
      "type": "function"
    },
    {
      "inputs": [
        {
          "internalType": "uint256",
          "name": "tokenAmount",
          "type": "uint256"
        },
        {
          "internalType": "uint256",
          "name": "minEth",
          "type": "uint256"
        }
      ],
      "name": "tokenToEthSwap",
      "outputs": [],
      "stateMutability": "nonpayable",
      "type": "function"
    },
    {
      "inputs": [],
      "name": "totalLiquidity",
      "outputs": [
        {
          "internalType": "uint256",
          "name": "",
          "type": "uint256"
        }
      ],
      "stateMutability": "view",
      "type": "function"
    },
    {
      "stateMutability": "payable",
      "type": "receive"
    }
  ],
  "bytecode": "0x608060405234801561001057600080fd5b506040516124153803806124158339818101604052810190610032919061012e565b336000806101000a81548173ffffffffffffffffffffffffffffffffffffffff021916908373ffffffffffffffffffffffffffffffffffffffff16021790555080600160006101000a81548173ffffffffffffffffffffffffffffffffffffffff021916908373ffffffffffffffffffffffffffffffffffffffff1602179055505061015b565b600080fd5b600073ffffffffffffffffffffffffffffffffffffffff82169050919050565b60006100e9826100be565b9050919050565b60006100fb826100de565b9050919050565b61010b816100f0565b811461011657600080fd5b50565b60008151905061012881610102565b92915050565b600060208284031215610144576101436100b9565b5b600061015284828501610119565b91505092915050565b6122ab8061016a6000396000f3fe6080604052600436106100c65760003560e01c8063b8c876b11161007f578063d3fdbbb511610059578063d3fdbbb514610259578063e0486c8a14610296578063f979dcd7146102bf578063fc0c546a146102db576100cd565b8063b8c876b1146101d7578063b9c7d48014610214578063ca8b4f7a1461023d576100cd565b806315770f92146100d2578063514fcac7146100fd57806351c6590a146101265780638da5cb5b146101425780639c8f9f231461016d578063a85c38ef14610196576100cd565b366100cd57005b600080fd5b3480156100de57600080fd5b506100e7610306565b6040516100f491906117b2565b60405180910390f35b34801561010957600080fd5b50610124600480360381019061011f91906117fe565b61030c565b005b610140600480360381019061013b91906117fe565b610509565b005b34801561014e57600080fd5b5061015761069d565b604051610164919061186c565b60405180910390f35b34801561017957600080fd5b50610194600480360381019061018f91906117fe565b6106c1565b005b3480156101a257600080fd5b506101bd60048036038101906101b891906117fe565b6109ed565b6040516101ce9594939291906118a2565b60405180910390f35b3480156101e357600080fd5b506101fe60048036038101906101f99190611921565b610a6d565b60405161020b91906117b2565b60405180910390f35b34801561022057600080fd5b5061023b6004803603810190610236919061194e565b610a85565b005b610257600480360381019061025291906119ba565b6110ea565b005b34801561026557600080fd5b50610280600480360381019061027b9190611a0d565b61129e565b60405161028d91906117b2565b60405180910390f35b3480156102a257600080fd5b506102bd60048036038101906102b8919061194e565b6112f6565b005b6102d960048036038101906102d491906117fe565b611554565b005b3480156102e757600080fd5b506102f0611773565b6040516102fd9190611abf565b60405180910390f35b60025481565b60006004828154811061032257610321611ada565b5b906000526020600020906004020190503373ffffffffffffffffffffffffffffffffffffffff168160000160009054906101000a900473ffffffffffffffffffffffffffffffffffffffff1673ffffffffffffffffffffffffffffffffffffffff16146103c4576040517f08c379a00000000000000000000000000000000000000000000000000000000081526004016103bb90611b66565b60405180910390fd5b8060030160009054906101000a900460ff16610415576040517f08c379a000000000000000000000000000000000000000000000000000000000815260040161040c90611bd2565b60405180910390fd5b60008160030160006101000a81548160ff0219169083151502179055508060000160149054906101000a900460ff16156104ce5760008160010154826002015461045f9190611c21565b90508160000160009054906101000a900473ffffffffffffffffffffffffffffffffffffffff1673ffffffffffffffffffffffffffffffffffffffff166108fc829081150290604051600060405180830381858888f193505050501580156104cb573d6000803e3d6000fd5b50505b7f61b9399f2f0f32ca39ce8d7be32caed5ec22fe07a6daba3a467ed479ec606582826040516104fd91906117b2565b60405180910390a15050565b6000349050600160009054906101000a900473ffffffffffffffffffffffffffffffffffffffff1673ffffffffffffffffffffffffffffffffffffffff166323b872dd3330856040518463ffffffff1660e01b815260040161056d93929190611c63565b6020604051808303816000875af115801561058c573d6000803e3d6000fd5b505050506040513d601f19601f820116820180604052508101906105b09190611caf565b6105ef576040517f08c379a00000000000000000000000000000000000000000000000000000000081526004016105e690611d28565b60405180910390fd5b80600360003373ffffffffffffffffffffffffffffffffffffffff1673ffffffffffffffffffffffffffffffffffffffff168152602001908152602001600020600082825461063e9190611d48565b9250508190555080600260008282546106579190611d48565b925050819055507fac1d76749e5447b7b16f5ab61447e1bd502f3bb4807af3b28e620d1700a6ee4533838360405161069193929190611d7c565b60405180910390a15050565b60008054906101000a900473ffffffffffffffffffffffffffffffffffffffff1681565b80600360003373ffffffffffffffffffffffffffffffffffffffff1673ffffffffffffffffffffffffffffffffffffffff168152602001908152602001600020541015610743576040517f08c379a000000000000000000000000000000000000000000000000000000000815260040161073a90611dff565b60405180910390fd5b600060025482476107549190611c21565b61075e9190611e4e565b9050600060025483600160009054906101000a900473ffffffffffffffffffffffffffffffffffffffff1673ffffffffffffffffffffffffffffffffffffffff166370a08231306040518263ffffffff1660e01b81526004016107c1919061186c565b602060405180830381865afa1580156107de573d6000803e3d6000fd5b505050506040513d601f19601f820116820180604052508101906108029190611e94565b61080c9190611c21565b6108169190611e4e565b905082600360003373ffffffffffffffffffffffffffffffffffffffff1673ffffffffffffffffffffffffffffffffffffffff16815260200190815260200160002060008282546108679190611ec1565b9250508190555082600260008282546108809190611ec1565b925050819055503373ffffffffffffffffffffffffffffffffffffffff166108fc839081150290604051600060405180830381858888f193505050501580156108cd573d6000803e3d6000fd5b50600160009054906101000a900473ffffffffffffffffffffffffffffffffffffffff1673ffffffffffffffffffffffffffffffffffffffff1663a9059cbb33836040518363ffffffff1660e01b815260040161092b929190611ef5565b6020604051808303816000875af115801561094a573d6000803e3d6000fd5b505050506040513d601f19601f8201168201806040525081019061096e9190611caf565b6109ad576040517f08c379a00000000000000000000000000000000000000000000000000000000081526004016109a490611d28565b60405180910390fd5b7f96cd817c6329656790ef8fba7675405193677d39619571282f5e21f3a98cd0593382846040516109e093929190611d7c565b60405180910390a1505050565b600481815481106109fd57600080fd5b90600052602060002090600402016000915090508060000160009054906101000a900473ffffffffffffffffffffffffffffffffffffffff16908060000160149054906101000a900460ff16908060010154908060020154908060030160009054906101000a900460ff16905085565b60036020528060005260406000206000915090505481565b600060048381548110610a9b57610a9a611ada565b5b906000526020600020906004020190508060030160009054906101000a900460ff16610afc576040517f08c379a0000000000000000000000000000000000000000000000000000000008152600401610af390611bd2565b60405180910390fd5b8060020154821115610b43576040517f08c379a0000000000000000000000000000000000000000000000000000000008152600401610b3a90611f6a565b60405180910390fd5b8060000160149054906101000a900460ff1615610d95578060000160009054906101000a900473ffffffffffffffffffffffffffffffffffffffff1673ffffffffffffffffffffffffffffffffffffffff163373ffffffffffffffffffffffffffffffffffffffff1603610bec576040517f08c379a0000000000000000000000000000000000000000000000000000000008152600401610be390611fd6565b60405180910390fd5b6000816001015483610bfe9190611c21565b905080471015610c43576040517f08c379a0000000000000000000000000000000000000000000000000000000008152600401610c3a90612042565b60405180910390fd5b600160009054906101000a900473ffffffffffffffffffffffffffffffffffffffff1673ffffffffffffffffffffffffffffffffffffffff166323b872dd338460000160009054906101000a900473ffffffffffffffffffffffffffffffffffffffff16866040518463ffffffff1660e01b8152600401610cc693929190611c63565b6020604051808303816000875af1158015610ce5573d6000803e3d6000fd5b505050506040513d601f19601f82011682018060405250810190610d099190611caf565b610d48576040517f08c379a0000000000000000000000000000000000000000000000000000000008152600401610d3f90611d28565b60405180910390fd5b3373ffffffffffffffffffffffffffffffffffffffff166108fc829081150290604051600060405180830381858888f19350505050158015610d8e573d6000803e3d6000fd5b5050611065565b8060000160009054906101000a900473ffffffffffffffffffffffffffffffffffffffff1673ffffffffffffffffffffffffffffffffffffffff163373ffffffffffffffffffffffffffffffffffffffff1603610e27576040517f08c379a0000000000000000000000000000000000000000000000000000000008152600401610e1e90611fd6565b60405180910390fd5b6000816001015483610e399190611c21565b905082600160009054906101000a900473ffffffffffffffffffffffffffffffffffffffff1673ffffffffffffffffffffffffffffffffffffffff166370a08231306040518263ffffffff1660e01b8152600401610e97919061186c565b602060405180830381865afa158015610eb4573d6000803e3d6000fd5b505050506040513d601f19601f82011682018060405250810190610ed89190611e94565b1015610f19576040517f08c379a0000000000000000000000000000000000000000000000000000000008152600401610f10906120ae565b60405180910390fd5b600160009054906101000a900473ffffffffffffffffffffffffffffffffffffffff1673ffffffffffffffffffffffffffffffffffffffff1663a9059cbb33856040518363ffffffff1660e01b8152600401610f76929190611ef5565b6020604051808303816000875af1158015610f95573d6000803e3d6000fd5b505050506040513d601f19601f82011682018060405250810190610fb99190611caf565b610ff8576040517f08c379a0000000000000000000000000000000000000000000000000000000008152600401610fef90611d28565b60405180910390fd5b8160000160009054906101000a900473ffffffffffffffffffffffffffffffffffffffff1673ffffffffffffffffffffffffffffffffffffffff166108fc829081150290604051600060405180830381858888f19350505050158015611062573d6000803e3d6000fd5b50505b818160020160008282546110799190611ec1565b9250508190555060008160020154036110aa5760008160030160006101000a81548160ff0219169083151502179055505b7fcb3dc2a21e2f5a2d47f2012a02e3d088725e88da087b62c693f98dedac2733348333846040516110dd939291906120ce565b60405180910390a1505050565b821561113f5780826110fc9190611c21565b34101561113e576040517f08c379a000000000000000000000000000000000000000000000000000000000815260040161113590612151565b60405180910390fd5b5b60046040518060a001604052803373ffffffffffffffffffffffffffffffffffffffff168152602001851515815260200184815260200183815260200160011515815250908060018154018082558091505060019003906000526020600020906004020160009091909190915060008201518160000160006101000a81548173ffffffffffffffffffffffffffffffffffffffff021916908373ffffffffffffffffffffffffffffffffffffffff16021790555060208201518160000160146101000a81548160ff021916908315150217905550604082015181600101556060820151816002015560808201518160030160006101000a81548160ff02191690831515021790555050507fa8d12dd5402d0aa9ccaa7a1346ef5a510e0c3ee938c13587bf17e59671b2ebee600160048054905061127c9190611ec1565b33858585604051611291959493929190612171565b60405180910390a1505050565b6000806103e5856112af9190611c21565b9050600083826112bf9190611c21565b90506000826103e8876112d29190611c21565b6112dc9190611d48565b905080826112ea9190611e4e565b93505050509392505050565b600047905060006113a384600160009054906101000a900473ffffffffffffffffffffffffffffffffffffffff1673ffffffffffffffffffffffffffffffffffffffff166370a08231306040518263ffffffff1660e01b815260040161135c919061186c565b602060405180830381865afa158015611379573d6000803e3d6000fd5b505050506040513d601f19601f8201168201806040525081019061139d9190611e94565b8461129e565b9050828110156113e8576040517f08c379a00000000000000000000000000000000000000000000000000000000081526004016113df90612210565b60405180910390fd5b600160009054906101000a900473ffffffffffffffffffffffffffffffffffffffff1673ffffffffffffffffffffffffffffffffffffffff166323b872dd3330876040518463ffffffff1660e01b815260040161144793929190611c63565b6020604051808303816000875af1158015611466573d6000803e3d6000fd5b505050506040513d601f19601f8201168201806040525081019061148a9190611caf565b6114c9576040517f08c379a00000000000000000000000000000000000000000000000000000000081526004016114c090611d28565b60405180910390fd5b3373ffffffffffffffffffffffffffffffffffffffff166108fc829081150290604051600060405180830381858888f1935050505015801561150f573d6000803e3d6000fd5b507fcc65e4d9060ece2ecf63011ac580550b04c8daeba63fac4dfe8669353cd8885933858360016040516115469493929190612230565b60405180910390a150505050565b6000600160009054906101000a900473ffffffffffffffffffffffffffffffffffffffff1673ffffffffffffffffffffffffffffffffffffffff166370a08231306040518263ffffffff1660e01b81526004016115b1919061186c565b602060405180830381865afa1580156115ce573d6000803e3d6000fd5b505050506040513d601f19601f820116820180604052508101906115f29190611e94565b9050600061160c3434476116069190611ec1565b8461129e565b905082811015611651576040517f08c379a000000000000000000000000000000000000000000000000000000000815260040161164890612210565b60405180910390fd5b600160009054906101000a900473ffffffffffffffffffffffffffffffffffffffff1673ffffffffffffffffffffffffffffffffffffffff1663a9059cbb33836040518363ffffffff1660e01b81526004016116ae929190611ef5565b6020604051808303816000875af11580156116cd573d6000803e3d6000fd5b505050506040513d601f19601f820116820180604052508101906116f19190611caf565b611730576040517f08c379a000000000000000000000000000000000000000000000000000000000815260040161172790611d28565b60405180910390fd5b7fcc65e4d9060ece2ecf63011ac580550b04c8daeba63fac4dfe8669353cd8885933348360006040516117669493929190612230565b60405180910390a1505050565b600160009054906101000a900473ffffffffffffffffffffffffffffffffffffffff1681565b6000819050919050565b6117ac81611799565b82525050565b60006020820190506117c760008301846117a3565b92915050565b600080fd5b6117db81611799565b81146117e657600080fd5b50565b6000813590506117f8816117d2565b92915050565b600060208284031215611814576118136117cd565b5b6000611822848285016117e9565b91505092915050565b600073ffffffffffffffffffffffffffffffffffffffff82169050919050565b60006118568261182b565b9050919050565b6118668161184b565b82525050565b6000602082019050611881600083018461185d565b92915050565b60008115159050919050565b61189c81611887565b82525050565b600060a0820190506118b7600083018861185d565b6118c46020830187611893565b6118d160408301866117a3565b6118de60608301856117a3565b6118eb6080830184611893565b9695505050505050565b6118fe8161184b565b811461190957600080fd5b50565b60008135905061191b816118f5565b92915050565b600060208284031215611937576119366117cd565b5b60006119458482850161190c565b91505092915050565b60008060408385031215611965576119646117cd565b5b6000611973858286016117e9565b9250506020611984858286016117e9565b9150509250929050565b61199781611887565b81146119a257600080fd5b50565b6000813590506119b48161198e565b92915050565b6000806000606084860312156119d3576119d26117cd565b5b60006119e1868287016119a5565b93505060206119f2868287016117e9565b9250506040611a03868287016117e9565b9150509250925092565b600080600060608486031215611a2657611a256117cd565b5b6000611a34868287016117e9565b9350506020611a45868287016117e9565b9250506040611a56868287016117e9565b9150509250925092565b6000819050919050565b6000611a85611a80611a7b8461182b565b611a60565b61182b565b9050919050565b6000611a9782611a6a565b9050919050565b6000611aa982611a8c565b9050919050565b611ab981611a9e565b82525050565b6000602082019050611ad46000830184611ab0565b92915050565b7f4e487b7100000000000000000000000000000000000000000000000000000000600052603260045260246000fd5b600082825260208201905092915050565b7f4f6e6c7920746865206f72646572206f776e65722063616e2063616e63656c00600082015250565b6000611b50601f83611b09565b9150611b5b82611b1a565b602082019050919050565b60006020820190508181036000830152611b7f81611b43565b9050919050565b7f4f72646572206973206e6f742061637469766500000000000000000000000000600082015250565b6000611bbc601383611b09565b9150611bc782611b86565b602082019050919050565b60006020820190508181036000830152611beb81611baf565b9050919050565b7f4e487b7100000000000000000000000000000000000000000000000000000000600052601160045260246000fd5b6000611c2c82611799565b9150611c3783611799565b9250828202611c4581611799565b91508282048414831517611c5c57611c5b611bf2565b5b5092915050565b6000606082019050611c78600083018661185d565b611c85602083018561185d565b611c9260408301846117a3565b949350505050565b600081519050611ca98161198e565b92915050565b600060208284031215611cc557611cc46117cd565b5b6000611cd384828501611c9a565b91505092915050565b7f546f6b656e207472616e73666572206661696c65640000000000000000000000600082015250565b6000611d12601583611b09565b9150611d1d82611cdc565b602082019050919050565b60006020820190508181036000830152611d4181611d05565b9050919050565b6000611d5382611799565b9150611d5e83611799565b9250828201905080821115611d7657611d75611bf2565b5b92915050565b6000606082019050611d91600083018661185d565b611d9e60208301856117a3565b611dab60408301846117a3565b949350505050565b7f4e6f7420656e6f756768206c6971756964697479000000000000000000000000600082015250565b6000611de9601483611b09565b9150611df482611db3565b602082019050919050565b60006020820190508181036000830152611e1881611ddc565b9050919050565b7f4e487b7100000000000000000000000000000000000000000000000000000000600052601260045260246000fd5b6000611e5982611799565b9150611e6483611799565b925082611e7457611e73611e1f565b5b828204905092915050565b600081519050611e8e816117d2565b92915050565b600060208284031215611eaa57611ea96117cd565b5b6000611eb884828501611e7f565b91505092915050565b6000611ecc82611799565b9150611ed783611799565b9250828203905081811115611eef57611eee611bf2565b5b92915050565b6000604082019050611f0a600083018561185d565b611f1760208301846117a3565b9392505050565b7f416d6f756e742065786365656473206f726465722073697a6500000000000000600082015250565b6000611f54601983611b09565b9150611f5f82611f1e565b602082019050919050565b60006020820190508181036000830152611f8381611f47565b9050919050565b7f43616e6e6f742066756c66696c6c20796f7572206f776e206f72646572000000600082015250565b6000611fc0601d83611b09565b9150611fcb82611f8a565b602082019050919050565b60006020820190508181036000830152611fef81611fb3565b9050919050565b7f4e6f7420656e6f7567682045544820696e20636f6e7472616374000000000000600082015250565b600061202c601a83611b09565b915061203782611ff6565b602082019050919050565b6000602082019050818103600083015261205b8161201f565b9050919050565b7f4e6f7420656e6f75676820746f6b656e7320696e20636f6e7472616374000000600082015250565b6000612098601d83611b09565b91506120a382612062565b602082019050919050565b600060208201905081810360008301526120c78161208b565b9050919050565b60006060820190506120e360008301866117a3565b6120f0602083018561185d565b6120fd60408301846117a3565b949350505050565b7f496e73756666696369656e74204554482073656e740000000000000000000000600082015250565b600061213b601583611b09565b915061214682612105565b602082019050919050565b6000602082019050818103600083015261216a8161212e565b9050919050565b600060a08201905061218660008301886117a3565b612193602083018761185d565b6121a06040830186611893565b6121ad60608301856117a3565b6121ba60808301846117a3565b9695505050505050565b7f496e73756666696369656e74206f757470757420616d6f756e74000000000000600082015250565b60006121fa601a83611b09565b9150612205826121c4565b602082019050919050565b60006020820190508181036000830152612229816121ed565b9050919050565b6000608082019050612245600083018761185d565b61225260208301866117a3565b61225f60408301856117a3565b61226c6060830184611893565b9594505050505056fea26469706673582212208934f096e967e145618fae1e74e107ad8dd2b3faa1d1df575e80c61998c82e7664736f6c634300081c0033",
  "linkReferences": {},
  "deployedLinkReferences": {}
}