{
  "_format": "hh-sol-artifact-1",
  "contractName": "TribeSTO",
  "sourceName": "contracts/TribeSTO.sol",
  "abi": [
    {
      "inputs": [
        {
          "internalType": "string",
          "name": "name",
          "type": "string"
        },
        {
          "internalType": "string",
          "name": "symbol",
          "type": "string"
        },
        {
          "internalType": "uint256",
          "name": "initialSupply",
          "type": "uint256"
        }
      ],
      "stateMutability": "nonpayable",
      "type": "constructor"
    },
    {
      "inputs": [
        {
          "internalType": "address",
          "name": "spender",
          "type": "address"
        },
        {
          "internalType": "uint256",
          "name": "allowance",
          "type": "uint256"
        },
        {
          "internalType": "uint256",
          "name": "needed",
          "type": "uint256"
        }
      ],
      "name": "ERC20InsufficientAllowance",
      "type": "error"
    },
    {
      "inputs": [
        {
          "internalType": "address",
          "name": "sender",
          "type": "address"
        },
        {
          "internalType": "uint256",
          "name": "balance",
          "type": "uint256"
        },
        {
          "internalType": "uint256",
          "name": "needed",
          "type": "uint256"
        }
      ],
      "name": "ERC20InsufficientBalance",
      "type": "error"
    },
    {
      "inputs": [
        {
          "internalType": "address",
          "name": "approver",
          "type": "address"
        }
      ],
      "name": "ERC20InvalidApprover",
      "type": "error"
    },
    {
      "inputs": [
        {
          "internalType": "address",
          "name": "receiver",
          "type": "address"
        }
      ],
      "name": "ERC20InvalidReceiver",
      "type": "error"
    },
    {
      "inputs": [
        {
          "internalType": "address",
          "name": "sender",
          "type": "address"
        }
      ],
      "name": "ERC20InvalidSender",
      "type": "error"
    },
    {
      "inputs": [
        {
          "internalType": "address",
          "name": "spender",
          "type": "address"
        }
      ],
      "name": "ERC20InvalidSpender",
      "type": "error"
    },
    {
      "inputs": [
        {
          "internalType": "address",
          "name": "owner",
          "type": "address"
        }
      ],
      "name": "OwnableInvalidOwner",
      "type": "error"
    },
    {
      "inputs": [
        {
          "internalType": "address",
          "name": "account",
          "type": "address"
        }
      ],
      "name": "OwnableUnauthorizedAccount",
      "type": "error"
    },
    {
      "anonymous": false,
      "inputs": [
        {
          "indexed": true,
          "internalType": "address",
          "name": "account",
          "type": "address"
        },
        {
          "indexed": false,
          "internalType": "bool",
          "name": "status",
          "type": "bool"
        }
      ],
      "name": "AddressWhitelisted",
      "type": "event"
    },
    {
      "anonymous": false,
      "inputs": [
        {
          "indexed": true,
          "internalType": "address",
          "name": "owner",
          "type": "address"
        },
        {
          "indexed": true,
          "internalType": "address",
          "name": "spender",
          "type": "address"
        },
        {
          "indexed": false,
          "internalType": "uint256",
          "name": "value",
          "type": "uint256"
        }
      ],
      "name": "Approval",
      "type": "event"
    },
    {
      "anonymous": false,
      "inputs": [
        {
          "indexed": true,
          "internalType": "address",
          "name": "account",
          "type": "address"
        },
        {
          "indexed": false,
          "internalType": "uint256",
          "name": "amount",
          "type": "uint256"
        }
      ],
      "name": "DividendClaimed",
      "type": "event"
    },
    {
      "anonymous": false,
      "inputs": [
        {
          "indexed": false,
          "internalType": "uint256",
          "name": "amount",
          "type": "uint256"
        }
      ],
      "name": "DividendsDeposited",
      "type": "event"
    },
    {
      "anonymous": false,
      "inputs": [
        {
          "indexed": true,
          "internalType": "address",
          "name": "previousOwner",
          "type": "address"
        },
        {
          "indexed": true,
          "internalType": "address",
          "name": "newOwner",
          "type": "address"
        }
      ],
      "name": "OwnershipTransferred",
      "type": "event"
    },
    {
      "anonymous": false,
      "inputs": [
        {
          "indexed": true,
          "internalType": "address",
          "name": "from",
          "type": "address"
        },
        {
          "indexed": true,
          "internalType": "address",
          "name": "to",
          "type": "address"
        },
        {
          "indexed": false,
          "internalType": "uint256",
          "name": "value",
          "type": "uint256"
        }
      ],
      "name": "Transfer",
      "type": "event"
    },
    {
      "inputs": [
        {
          "internalType": "address",
          "name": "owner",
          "type": "address"
        },
        {
          "internalType": "address",
          "name": "spender",
          "type": "address"
        }
      ],
      "name": "allowance",
      "outputs": [
        {
          "internalType": "uint256",
          "name": "",
          "type": "uint256"
        }
      ],
      "stateMutability": "view",
      "type": "function"
    },
    {
      "inputs": [
        {
          "internalType": "address",
          "name": "spender",
          "type": "address"
        },
        {
          "internalType": "uint256",
          "name": "value",
          "type": "uint256"
        }
      ],
      "name": "approve",
      "outputs": [
        {
          "internalType": "bool",
          "name": "",
          "type": "bool"
        }
      ],
      "stateMutability": "nonpayable",
      "type": "function"
    },
    {
      "inputs": [
        {
          "internalType": "address",
          "name": "account",
          "type": "address"
        }
      ],
      "name": "balanceOf",
      "outputs": [
        {
          "internalType": "uint256",
          "name": "",
          "type": "uint256"
        }
      ],
      "stateMutability": "view",
      "type": "function"
    },
    {
      "inputs": [],
      "name": "claimDividends",
      "outputs": [],
      "stateMutability": "nonpayable",
      "type": "function"
    },
    {
      "inputs": [],
      "name": "decimals",
      "outputs": [
        {
          "internalType": "uint8",
          "name": "",
          "type": "uint8"
        }
      ],
      "stateMutability": "view",
      "type": "function"
    },
    {
      "inputs": [],
      "name": "depositDividends",
      "outputs": [],
      "stateMutability": "payable",
      "type": "function"
    },
    {
      "inputs": [
        {
          "internalType": "address",
          "name": "account",
          "type": "address"
        }
      ],
      "name": "dividendBalanceOf",
      "outputs": [
        {
          "internalType": "uint256",
          "name": "",
          "type": "uint256"
        }
      ],
      "stateMutability": "view",
      "type": "function"
    },
    {
      "inputs": [
        {
          "internalType": "address",
          "name": "account",
          "type": "address"
        }
      ],
      "name": "isWhitelisted",
      "outputs": [
        {
          "internalType": "bool",
          "name": "",
          "type": "bool"
        }
      ],
      "stateMutability": "view",
      "type": "function"
    },
    {
      "inputs": [],
      "name": "name",
      "outputs": [
        {
          "internalType": "string",
          "name": "",
          "type": "string"
        }
      ],
      "stateMutability": "view",
      "type": "function"
    },
    {
      "inputs": [],
      "name": "owner",
      "outputs": [
        {
          "internalType": "address",
          "name": "",
          "type": "address"
        }
      ],
      "stateMutability": "view",
      "type": "function"
    },
    {
      "inputs": [],
      "name": "renounceOwnership",
      "outputs": [],
      "stateMutability": "nonpayable",
      "type": "function"
    },
    {
      "inputs": [],
      "name": "symbol",
      "outputs": [
        {
          "internalType": "string",
          "name": "",
          "type": "string"
        }
      ],
      "stateMutability": "view",
      "type": "function"
    },
    {
      "inputs": [],
      "name": "totalDividends",
      "outputs": [
        {
          "internalType": "uint256",
          "name": "",
          "type": "uint256"
        }
      ],
      "stateMutability": "view",
      "type": "function"
    },
    {
      "inputs": [],
      "name": "totalSupply",
      "outputs": [
        {
          "internalType": "uint256",
          "name": "",
          "type": "uint256"
        }
      ],
      "stateMutability": "view",
      "type": "function"
    },
    {
      "inputs": [
        {
          "internalType": "address",
          "name": "recipient",
          "type": "address"
        },
        {
          "internalType": "uint256",
          "name": "amount",
          "type": "uint256"
        }
      ],
      "name": "transfer",
      "outputs": [
        {
          "internalType": "bool",
          "name": "",
          "type": "bool"
        }
      ],
      "stateMutability": "nonpayable",
      "type": "function"
    },
    {
      "inputs": [
        {
          "internalType": "address",
          "name": "sender",
          "type": "address"
        },
        {
          "internalType": "address",
          "name": "recipient",
          "type": "address"
        },
        {
          "internalType": "uint256",
          "name": "amount",
          "type": "uint256"
        }
      ],
      "name": "transferFrom",
      "outputs": [
        {
          "internalType": "bool",
          "name": "",
          "type": "bool"
        }
      ],
      "stateMutability": "nonpayable",
      "type": "function"
    },
    {
      "inputs": [
        {
          "internalType": "address",
          "name": "newOwner",
          "type": "address"
        }
      ],
      "name": "transferOwnership",
      "outputs": [],
      "stateMutability": "nonpayable",
      "type": "function"
    },
    {
      "inputs": [
        {
          "internalType": "address",
          "name": "account",
          "type": "address"
        },
        {
          "internalType": "bool",
          "name": "status",
          "type": "bool"
        }
      ],
      "name": "whitelistAddress",
      "outputs": [],
      "stateMutability": "nonpayable",
      "type": "function"
    }
  ],
  "bytecode": "0x608060405234801561001057600080fd5b506040516129a83803806129a88339818101604052810190610032919061063c565b338383816003908161004491906108de565b50806004908161005491906108de565b505050600073ffffffffffffffffffffffffffffffffffffffff168173ffffffffffffffffffffffffffffffffffffffff16036100c95760006040517f1e4fbdf70000000000000000000000000000000000000000000000000000000081526004016100c091906109f1565b60405180910390fd5b6100d88161011560201b60201c565b5061010d336100eb6101db60201b60201c565b600a6100f79190610b7b565b836101029190610bc6565b6101e460201b60201c565b505050610c9d565b6000600560009054906101000a900473ffffffffffffffffffffffffffffffffffffffff16905081600560006101000a81548173ffffffffffffffffffffffffffffffffffffffff021916908373ffffffffffffffffffffffffffffffffffffffff1602179055508173ffffffffffffffffffffffffffffffffffffffff168173ffffffffffffffffffffffffffffffffffffffff167f8be0079c531659141344cd1fd0a4f28419497f9722a3daafe3b4186f6b6457e060405160405180910390a35050565b60006012905090565b600073ffffffffffffffffffffffffffffffffffffffff168273ffffffffffffffffffffffffffffffffffffffff16036102565760006040517fec442f0500000000000000000000000000000000000000000000000000000000815260040161024d91906109f1565b60405180910390fd5b6102686000838361026c60201b60201c565b5050565b600073ffffffffffffffffffffffffffffffffffffffff168373ffffffffffffffffffffffffffffffffffffffff16036102be5780600260008282546102b29190610c08565b92505081905550610391565b60008060008573ffffffffffffffffffffffffffffffffffffffff1673ffffffffffffffffffffffffffffffffffffffff1681526020019081526020016000205490508181101561034a578381836040517fe450d38c00000000000000000000000000000000000000000000000000000000815260040161034193929190610c4b565b60405180910390fd5b8181036000808673ffffffffffffffffffffffffffffffffffffffff1673ffffffffffffffffffffffffffffffffffffffff16815260200190815260200160002081905550505b600073ffffffffffffffffffffffffffffffffffffffff168273ffffffffffffffffffffffffffffffffffffffff16036103da5780600260008282540392505081905550610427565b806000808473ffffffffffffffffffffffffffffffffffffffff1673ffffffffffffffffffffffffffffffffffffffff168152602001908152602001600020600082825401925050819055505b8173ffffffffffffffffffffffffffffffffffffffff168373ffffffffffffffffffffffffffffffffffffffff167fddf252ad1be2c89b69c2b068fc378daa952ba7f163c4a11628f55a4df523b3ef836040516104849190610c82565b60405180910390a3505050565b6000604051905090565b600080fd5b600080fd5b600080fd5b600080fd5b6000601f19601f8301169050919050565b7f4e487b7100000000000000000000000000000000000000000000000000000000600052604160045260246000fd5b6104f8826104af565b810181811067ffffffffffffffff82111715610517576105166104c0565b5b80604052505050565b600061052a610491565b905061053682826104ef565b919050565b600067ffffffffffffffff821115610556576105556104c0565b5b61055f826104af565b9050602081019050919050565b60005b8381101561058a57808201518184015260208101905061056f565b60008484015250505050565b60006105a96105a48461053b565b610520565b9050828152602081018484840111156105c5576105c46104aa565b5b6105d084828561056c565b509392505050565b600082601f8301126105ed576105ec6104a5565b5b81516105fd848260208601610596565b91505092915050565b6000819050919050565b61061981610606565b811461062457600080fd5b50565b60008151905061063681610610565b92915050565b6000806000606084860312156106555761065461049b565b5b600084015167ffffffffffffffff811115610673576106726104a0565b5b61067f868287016105d8565b935050602084015167ffffffffffffffff8111156106a05761069f6104a0565b5b6106ac868287016105d8565b92505060406106bd86828701610627565b9150509250925092565b600081519050919050565b7f4e487b7100000000000000000000000000000000000000000000000000000000600052602260045260246000fd5b6000600282049050600182168061071957607f821691505b60208210810361072c5761072b6106d2565b5b50919050565b60008190508160005260206000209050919050565b60006020601f8301049050919050565b600082821b905092915050565b6000600883026107947fffffffffffffffffffffffffffffffffffffffffffffffffffffffffffffffff82610757565b61079e8683610757565b95508019841693508086168417925050509392505050565b6000819050919050565b60006107db6107d66107d184610606565b6107b6565b610606565b9050919050565b6000819050919050565b6107f5836107c0565b610809610801826107e2565b848454610764565b825550505050565b600090565b61081e610811565b6108298184846107ec565b505050565b5b8181101561084d57610842600082610816565b60018101905061082f565b5050565b601f8211156108925761086381610732565b61086c84610747565b8101602085101561087b578190505b61088f61088785610747565b83018261082e565b50505b505050565b600082821c905092915050565b60006108b560001984600802610897565b1980831691505092915050565b60006108ce83836108a4565b9150826002028217905092915050565b6108e7826106c7565b67ffffffffffffffff811115610900576108ff6104c0565b5b61090a8254610701565b610915828285610851565b600060209050601f8311600181146109485760008415610936578287015190505b61094085826108c2565b8655506109a8565b601f19841661095686610732565b60005b8281101561097e57848901518255600182019150602085019450602081019050610959565b8683101561099b5784890151610997601f8916826108a4565b8355505b6001600288020188555050505b505050505050565b600073ffffffffffffffffffffffffffffffffffffffff82169050919050565b60006109db826109b0565b9050919050565b6109eb816109d0565b82525050565b6000602082019050610a0660008301846109e2565b92915050565b7f4e487b7100000000000000000000000000000000000000000000000000000000600052601160045260246000fd5b60008160011c9050919050565b6000808291508390505b6001851115610a9257808604811115610a6e57610a6d610a0c565b5b6001851615610a7d5780820291505b8081029050610a8b85610a3b565b9450610a52565b94509492505050565b600082610aab5760019050610b67565b81610ab95760009050610b67565b8160018114610acf5760028114610ad957610b08565b6001915050610b67565b60ff841115610aeb57610aea610a0c565b5b8360020a915084821115610b0257610b01610a0c565b5b50610b67565b5060208310610133831016604e8410600b8410161715610b3d5782820a905083811115610b3857610b37610a0c565b5b610b67565b610b4a8484846001610a48565b92509050818404811115610b6157610b60610a0c565b5b81810290505b9392505050565b600060ff82169050919050565b6000610b8682610606565b9150610b9183610b6e565b9250610bbe7fffffffffffffffffffffffffffffffffffffffffffffffffffffffffffffffff8484610a9b565b905092915050565b6000610bd182610606565b9150610bdc83610606565b9250828202610bea81610606565b91508282048414831517610c0157610c00610a0c565b5b5092915050565b6000610c1382610606565b9150610c1e83610606565b9250828201905080821115610c3657610c35610a0c565b5b92915050565b610c4581610606565b82525050565b6000606082019050610c6060008301866109e2565b610c6d6020830185610c3c565b610c7a6040830184610c3c565b949350505050565b6000602082019050610c976000830184610c3c565b92915050565b611cfc80610cac6000396000f3fe6080604052600436106101095760003560e01c80638da5cb5b11610095578063b9a45aac11610064578063b9a45aac1461036f578063dd62ed3e14610398578063defa92ee146103d5578063e083d4c8146103df578063f2fde38b1461041c57610109565b80638da5cb5b146102b157806395d89b41146102dc578063997664d714610307578063a9059cbb1461033257610109565b8063313ce567116100dc578063313ce567146101de5780633af32abf14610209578063668038e01461024657806370a082311461025d578063715018a61461029a57610109565b806306fdde031461010e578063095ea7b31461013957806318160ddd1461017657806323b872dd146101a1575b600080fd5b34801561011a57600080fd5b50610123610445565b6040516101309190611692565b60405180910390f35b34801561014557600080fd5b50610160600480360381019061015b919061174d565b6104d7565b60405161016d91906117a8565b60405180910390f35b34801561018257600080fd5b5061018b6104fa565b60405161019891906117d2565b60405180910390f35b3480156101ad57600080fd5b506101c860048036038101906101c391906117ed565b610504565b6040516101d591906117a8565b60405180910390f35b3480156101ea57600080fd5b506101f3610636565b604051610200919061185c565b60405180910390f35b34801561021557600080fd5b50610230600480360381019061022b9190611877565b61063f565b60405161023d91906117a8565b60405180910390f35b34801561025257600080fd5b5061025b610695565b005b34801561026957600080fd5b50610284600480360381019061027f9190611877565b610887565b60405161029191906117d2565b60405180910390f35b3480156102a657600080fd5b506102af6108cf565b005b3480156102bd57600080fd5b506102c66108e3565b6040516102d391906118b3565b60405180910390f35b3480156102e857600080fd5b506102f161090d565b6040516102fe9190611692565b60405180910390f35b34801561031357600080fd5b5061031c61099f565b60405161032991906117d2565b60405180910390f35b34801561033e57600080fd5b506103596004803603810190610354919061174d565b6109a5565b60405161036691906117a8565b60405180910390f35b34801561037b57600080fd5b50610396600480360381019061039191906118fa565b610ad5565b005b3480156103a457600080fd5b506103bf60048036038101906103ba919061193a565b610b86565b6040516103cc91906117d2565b60405180910390f35b6103dd610c0d565b005b3480156103eb57600080fd5b5061040660048036038101906104019190611877565b610df6565b60405161041391906117d2565b60405180910390f35b34801561042857600080fd5b50610443600480360381019061043e9190611877565b610e3f565b005b606060038054610454906119a9565b80601f0160208091040260200160405190810160405280929190818152602001828054610480906119a9565b80156104cd5780601f106104a2576101008083540402835291602001916104cd565b820191906000526020600020905b8154815290600101906020018083116104b057829003601f168201915b5050505050905090565b6000806104e2610ec5565b90506104ef818585610ecd565b600191505092915050565b6000600254905090565b600083600660008273ffffffffffffffffffffffffffffffffffffffff1673ffffffffffffffffffffffffffffffffffffffff16815260200190815260200160002060009054906101000a900460ff16610593576040517f08c379a000000000000000000000000000000000000000000000000000000000815260040161058a90611a26565b60405180910390fd5b83600660008273ffffffffffffffffffffffffffffffffffffffff1673ffffffffffffffffffffffffffffffffffffffff16815260200190815260200160002060009054906101000a900460ff16610620576040517f08c379a000000000000000000000000000000000000000000000000000000000815260040161061790611a26565b60405180910390fd5b61062b868686610edf565b925050509392505050565b60006012905090565b6000600660008373ffffffffffffffffffffffffffffffffffffffff1673ffffffffffffffffffffffffffffffffffffffff16815260200190815260200160002060009054906101000a900460ff169050919050565b33600660008273ffffffffffffffffffffffffffffffffffffffff1673ffffffffffffffffffffffffffffffffffffffff16815260200190815260200160002060009054906101000a900460ff16610722576040517f08c379a000000000000000000000000000000000000000000000000000000000815260040161071990611a26565b60405180910390fd5b6000600760003373ffffffffffffffffffffffffffffffffffffffff1673ffffffffffffffffffffffffffffffffffffffff168152602001908152602001600020549050600081116107a9576040517f08c379a00000000000000000000000000000000000000000000000000000000081526004016107a090611a92565b60405180910390fd5b6000600760003373ffffffffffffffffffffffffffffffffffffffff1673ffffffffffffffffffffffffffffffffffffffff168152602001908152602001600020819055503373ffffffffffffffffffffffffffffffffffffffff166108fc829081150290604051600060405180830381858888f19350505050158015610834573d6000803e3d6000fd5b503373ffffffffffffffffffffffffffffffffffffffff167f5efa67896a23b651b741b525caacba039c00ca7853be3de8eb1f4269e8669c568260405161087b91906117d2565b60405180910390a25050565b60008060008373ffffffffffffffffffffffffffffffffffffffff1673ffffffffffffffffffffffffffffffffffffffff168152602001908152602001600020549050919050565b6108d7610f0e565b6108e16000610f95565b565b6000600560009054906101000a900473ffffffffffffffffffffffffffffffffffffffff16905090565b60606004805461091c906119a9565b80601f0160208091040260200160405190810160405280929190818152602001828054610948906119a9565b80156109955780601f1061096a57610100808354040283529160200191610995565b820191906000526020600020905b81548152906001019060200180831161097857829003601f168201915b5050505050905090565b60085481565b600033600660008273ffffffffffffffffffffffffffffffffffffffff1673ffffffffffffffffffffffffffffffffffffffff16815260200190815260200160002060009054906101000a900460ff16610a34576040517f08c379a0000000000000000000000000000000000000000000000000000000008152600401610a2b90611a26565b60405180910390fd5b83600660008273ffffffffffffffffffffffffffffffffffffffff1673ffffffffffffffffffffffffffffffffffffffff16815260200190815260200160002060009054906101000a900460ff16610ac1576040517f08c379a0000000000000000000000000000000000000000000000000000000008152600401610ab890611a26565b60405180910390fd5b610acb858561105b565b9250505092915050565b610add610f0e565b80600660008473ffffffffffffffffffffffffffffffffffffffff1673ffffffffffffffffffffffffffffffffffffffff16815260200190815260200160002060006101000a81548160ff0219169083151502179055508173ffffffffffffffffffffffffffffffffffffffff167faf367c7d20ce5b2ab6da56afd0c9c39b00ba995263c60292a3e1ee3781fd488582604051610b7a91906117a8565b60405180910390a25050565b6000600160008473ffffffffffffffffffffffffffffffffffffffff1673ffffffffffffffffffffffffffffffffffffffff16815260200190815260200160002060008373ffffffffffffffffffffffffffffffffffffffff1673ffffffffffffffffffffffffffffffffffffffff16815260200190815260200160002054905092915050565b610c15610f0e565b60003411610c58576040517f08c379a0000000000000000000000000000000000000000000000000000000008152600401610c4f90611afe565b60405180910390fd5b3460086000828254610c6a9190611b4d565b925050819055506000610c7b6104fa565b905060008111610cc0576040517f08c379a0000000000000000000000000000000000000000000000000000000008152600401610cb790611bcd565b60405180910390fd5b60005b81811015610dbb576000819050600660008273ffffffffffffffffffffffffffffffffffffffff1673ffffffffffffffffffffffffffffffffffffffff16815260200190815260200160002060009054906101000a900460ff1615610dad576000610d2d82610887565b90506000811115610dab576000848234610d479190611bed565b610d519190611c5e565b905080600760008573ffffffffffffffffffffffffffffffffffffffff1673ffffffffffffffffffffffffffffffffffffffff1681526020019081526020016000206000828254610da29190611b4d565b92505081905550505b505b508080600101915050610cc3565b507f868441bc0e3b50e598fc39ab9d370f6cbab5ee4b02c6b19e17eec2647415609c34604051610deb91906117d2565b60405180910390a150565b6000600760008373ffffffffffffffffffffffffffffffffffffffff1673ffffffffffffffffffffffffffffffffffffffff168152602001908152602001600020549050919050565b610e47610f0e565b600073ffffffffffffffffffffffffffffffffffffffff168173ffffffffffffffffffffffffffffffffffffffff1603610eb95760006040517f1e4fbdf7000000000000000000000000000000000000000000000000000000008152600401610eb091906118b3565b60405180910390fd5b610ec281610f95565b50565b600033905090565b610eda838383600161107e565b505050565b600080610eea610ec5565b9050610ef7858285611255565b610f028585856112e9565b60019150509392505050565b610f16610ec5565b73ffffffffffffffffffffffffffffffffffffffff16610f346108e3565b73ffffffffffffffffffffffffffffffffffffffff1614610f9357610f57610ec5565b6040517f118cdaa7000000000000000000000000000000000000000000000000000000008152600401610f8a91906118b3565b60405180910390fd5b565b6000600560009054906101000a900473ffffffffffffffffffffffffffffffffffffffff16905081600560006101000a81548173ffffffffffffffffffffffffffffffffffffffff021916908373ffffffffffffffffffffffffffffffffffffffff1602179055508173ffffffffffffffffffffffffffffffffffffffff168173ffffffffffffffffffffffffffffffffffffffff167f8be0079c531659141344cd1fd0a4f28419497f9722a3daafe3b4186f6b6457e060405160405180910390a35050565b600080611066610ec5565b90506110738185856112e9565b600191505092915050565b600073ffffffffffffffffffffffffffffffffffffffff168473ffffffffffffffffffffffffffffffffffffffff16036110f05760006040517fe602df050000000000000000000000000000000000000000000000000000000081526004016110e791906118b3565b60405180910390fd5b600073ffffffffffffffffffffffffffffffffffffffff168373ffffffffffffffffffffffffffffffffffffffff16036111625760006040517f94280d6200000000000000000000000000000000000000000000000000000000815260040161115991906118b3565b60405180910390fd5b81600160008673ffffffffffffffffffffffffffffffffffffffff1673ffffffffffffffffffffffffffffffffffffffff16815260200190815260200160002060008573ffffffffffffffffffffffffffffffffffffffff1673ffffffffffffffffffffffffffffffffffffffff16815260200190815260200160002081905550801561124f578273ffffffffffffffffffffffffffffffffffffffff168473ffffffffffffffffffffffffffffffffffffffff167f8c5be1e5ebec7d5bd14f71427d1e84f3dd0314c0f7b2291e5b200ac8c7c3b9258460405161124691906117d2565b60405180910390a35b50505050565b60006112618484610b86565b90507fffffffffffffffffffffffffffffffffffffffffffffffffffffffffffffffff81146112e357818110156112d3578281836040517ffb8f41b20000000000000000000000000000000000000000000000000000000081526004016112ca93929190611c8f565b60405180910390fd5b6112e28484848403600061107e565b5b50505050565b600073ffffffffffffffffffffffffffffffffffffffff168373ffffffffffffffffffffffffffffffffffffffff160361135b5760006040517f96c6fd1e00000000000000000000000000000000000000000000000000000000815260040161135291906118b3565b60405180910390fd5b600073ffffffffffffffffffffffffffffffffffffffff168273ffffffffffffffffffffffffffffffffffffffff16036113cd5760006040517fec442f050000000000000000000000000000000000000000000000000000000081526004016113c491906118b3565b60405180910390fd5b6113d88383836113dd565b505050565b600073ffffffffffffffffffffffffffffffffffffffff168373ffffffffffffffffffffffffffffffffffffffff160361142f5780600260008282546114239190611b4d565b92505081905550611502565b60008060008573ffffffffffffffffffffffffffffffffffffffff1673ffffffffffffffffffffffffffffffffffffffff168152602001908152602001600020549050818110156114bb578381836040517fe450d38c0000000000000000000000000000000000000000000000000000000081526004016114b293929190611c8f565b60405180910390fd5b8181036000808673ffffffffffffffffffffffffffffffffffffffff1673ffffffffffffffffffffffffffffffffffffffff16815260200190815260200160002081905550505b600073ffffffffffffffffffffffffffffffffffffffff168273ffffffffffffffffffffffffffffffffffffffff160361154b5780600260008282540392505081905550611598565b806000808473ffffffffffffffffffffffffffffffffffffffff1673ffffffffffffffffffffffffffffffffffffffff168152602001908152602001600020600082825401925050819055505b8173ffffffffffffffffffffffffffffffffffffffff168373ffffffffffffffffffffffffffffffffffffffff167fddf252ad1be2c89b69c2b068fc378daa952ba7f163c4a11628f55a4df523b3ef836040516115f591906117d2565b60405180910390a3505050565b600081519050919050565b600082825260208201905092915050565b60005b8381101561163c578082015181840152602081019050611621565b60008484015250505050565b6000601f19601f8301169050919050565b600061166482611602565b61166e818561160d565b935061167e81856020860161161e565b61168781611648565b840191505092915050565b600060208201905081810360008301526116ac8184611659565b905092915050565b600080fd5b600073ffffffffffffffffffffffffffffffffffffffff82169050919050565b60006116e4826116b9565b9050919050565b6116f4816116d9565b81146116ff57600080fd5b50565b600081359050611711816116eb565b92915050565b6000819050919050565b61172a81611717565b811461173557600080fd5b50565b60008135905061174781611721565b92915050565b60008060408385031215611764576117636116b4565b5b600061177285828601611702565b925050602061178385828601611738565b9150509250929050565b60008115159050919050565b6117a28161178d565b82525050565b60006020820190506117bd6000830184611799565b92915050565b6117cc81611717565b82525050565b60006020820190506117e760008301846117c3565b92915050565b600080600060608486031215611806576118056116b4565b5b600061181486828701611702565b935050602061182586828701611702565b925050604061183686828701611738565b9150509250925092565b600060ff82169050919050565b61185681611840565b82525050565b6000602082019050611871600083018461184d565b92915050565b60006020828403121561188d5761188c6116b4565b5b600061189b84828501611702565b91505092915050565b6118ad816116d9565b82525050565b60006020820190506118c860008301846118a4565b92915050565b6118d78161178d565b81146118e257600080fd5b50565b6000813590506118f4816118ce565b92915050565b60008060408385031215611911576119106116b4565b5b600061191f85828601611702565b9250506020611930858286016118e5565b9150509250929050565b60008060408385031215611951576119506116b4565b5b600061195f85828601611702565b925050602061197085828601611702565b9150509250929050565b7f4e487b7100000000000000000000000000000000000000000000000000000000600052602260045260246000fd5b600060028204905060018216806119c157607f821691505b6020821081036119d4576119d361197a565b5b50919050565b7f41646472657373206e6f742077686974656c6973746564000000000000000000600082015250565b6000611a1060178361160d565b9150611a1b826119da565b602082019050919050565b60006020820190508181036000830152611a3f81611a03565b9050919050565b7f4e6f206469766964656e647320746f20636c61696d0000000000000000000000600082015250565b6000611a7c60158361160d565b9150611a8782611a46565b602082019050919050565b60006020820190508181036000830152611aab81611a6f565b9050919050565b7f4e6f2045746865722073656e7420666f72206469766964656e64730000000000600082015250565b6000611ae8601b8361160d565b9150611af382611ab2565b602082019050919050565b60006020820190508181036000830152611b1781611adb565b9050919050565b7f4e487b7100000000000000000000000000000000000000000000000000000000600052601160045260246000fd5b6000611b5882611717565b9150611b6383611717565b9250828201905080821115611b7b57611b7a611b1e565b5b92915050565b7f4e6f20746f6b656e73206d696e74656400000000000000000000000000000000600082015250565b6000611bb760108361160d565b9150611bc282611b81565b602082019050919050565b60006020820190508181036000830152611be681611baa565b9050919050565b6000611bf882611717565b9150611c0383611717565b9250828202611c1181611717565b91508282048414831517611c2857611c27611b1e565b5b5092915050565b7f4e487b7100000000000000000000000000000000000000000000000000000000600052601260045260246000fd5b6000611c6982611717565b9150611c7483611717565b925082611c8457611c83611c2f565b5b828204905092915050565b6000606082019050611ca460008301866118a4565b611cb160208301856117c3565b611cbe60408301846117c3565b94935050505056fea2646970667358221220170c260fa469b0690ec77fa2dd24875f85501d4b011440a22222c1c976e05f8564736f6c634300081c0033",
  "linkReferences": {},
  "deployedLinkReferences": {}
}